{
  "contractName": "Lottery",
  "abi": [
    {
      "inputs": [],
      "stateMutability": "nonpayable",
      "type": "constructor"
    },
    {
      "inputs": [
        {
          "internalType": "uint256",
          "name": "",
          "type": "uint256"
        }
      ],
      "name": "lotteryHistory",
      "outputs": [
        {
          "internalType": "address payable",
          "name": "",
          "type": "address"
        }
      ],
      "stateMutability": "view",
      "type": "function",
      "constant": true
    },
    {
      "inputs": [],
      "name": "lotteryId",
      "outputs": [
        {
          "internalType": "uint256",
          "name": "",
          "type": "uint256"
        }
      ],
      "stateMutability": "view",
      "type": "function",
      "constant": true
    },
    {
      "inputs": [],
      "name": "owner",
      "outputs": [
        {
          "internalType": "address",
          "name": "",
          "type": "address"
        }
      ],
      "stateMutability": "view",
      "type": "function",
      "constant": true
    },
    {
      "inputs": [
        {
          "internalType": "uint256",
          "name": "",
          "type": "uint256"
        }
      ],
      "name": "players",
      "outputs": [
        {
          "internalType": "address payable",
          "name": "",
          "type": "address"
        }
      ],
      "stateMutability": "view",
      "type": "function",
      "constant": true
    },
    {
      "inputs": [],
      "name": "randomResult",
      "outputs": [
        {
          "internalType": "uint256",
          "name": "",
          "type": "uint256"
        }
      ],
      "stateMutability": "view",
      "type": "function",
      "constant": true
    },
    {
      "inputs": [
        {
          "internalType": "bytes32",
          "name": "requestId",
          "type": "bytes32"
        },
        {
          "internalType": "uint256",
          "name": "randomness",
          "type": "uint256"
        }
      ],
      "name": "rawFulfillRandomness",
      "outputs": [],
      "stateMutability": "nonpayable",
      "type": "function"
    },
    {
      "inputs": [],
      "name": "getRandomNumber",
      "outputs": [
        {
          "internalType": "bytes32",
          "name": "requestId",
          "type": "bytes32"
        }
      ],
      "stateMutability": "nonpayable",
      "type": "function"
    },
    {
      "inputs": [
        {
          "internalType": "uint256",
          "name": "lottery",
          "type": "uint256"
        }
      ],
      "name": "getWinnerByLottery",
      "outputs": [
        {
          "internalType": "address payable",
          "name": "",
          "type": "address"
        }
      ],
      "stateMutability": "view",
      "type": "function",
      "constant": true
    },
    {
      "inputs": [],
      "name": "getBalance",
      "outputs": [
        {
          "internalType": "uint256",
          "name": "",
          "type": "uint256"
        }
      ],
      "stateMutability": "view",
      "type": "function",
      "constant": true
    },
    {
      "inputs": [],
      "name": "getPlayers",
      "outputs": [
        {
          "internalType": "address payable[]",
          "name": "",
          "type": "address[]"
        }
      ],
      "stateMutability": "view",
      "type": "function",
      "constant": true
    },
    {
      "inputs": [],
      "name": "enter",
      "outputs": [],
      "stateMutability": "payable",
      "type": "function",
      "payable": true
    },
    {
      "inputs": [],
      "name": "pickWinner",
      "outputs": [],
      "stateMutability": "nonpayable",
      "type": "function"
    },
    {
      "inputs": [],
      "name": "payWinner",
      "outputs": [],
      "stateMutability": "nonpayable",
      "type": "function"
    }
  ],
  "bytecode": "0x60c060405234801561001057600080fd5b5073b3dccb4cf7a26f6cf6b120cf5a73875b7bbc655b7301be23585060835e02b77ef475b0cc51aa1e07098173ffffffffffffffffffffffffffffffffffffffff1660a08173ffffffffffffffffffffffffffffffffffffffff16815250508073ffffffffffffffffffffffffffffffffffffffff1660808173ffffffffffffffffffffffffffffffffffffffff168152505050507f2ed0feb3e7fd2022120aa84fab1945545a9f2ffc9076fd6156fa96eaff4c131160001b60058190555067016345785d8a000060068190555033600160006101000a81548173ffffffffffffffffffffffffffffffffffffffff021916908373ffffffffffffffffffffffffffffffffffffffff160217905550600160038190555060805160a0516112ba61015a6000396000818161047a01526108c00152600081816106c4015261088401526112ba6000f3fe6080604052600436106100c25760003560e01c80638da5cb5b1161007f578063dbdff2c111610059578063dbdff2c114610244578063e580f47b1461026f578063e97dcb621461029a578063f71d96cb146102a4576100c2565b80638da5cb5b146101d957806394985ddd14610204578063be71248a1461022d576100c2565b806312065fe0146100c7578063281d098d146100f257806342619f661461012f5780635d495aea1461015a5780636d6fe230146101715780638b5b9ccc146101ae575b600080fd5b3480156100d357600080fd5b506100dc6102e1565b6040516100e99190610aff565b60405180910390f35b3480156100fe57600080fd5b5061011960048036038101906101149190610b4b565b6102e9565b6040516101269190610bb9565b60405180910390f35b34801561013b57600080fd5b50610144610326565b6040516101519190610aff565b60405180910390f35b34801561016657600080fd5b5061016f61032c565b005b34801561017d57600080fd5b5061019860048036038101906101939190610b4b565b610391565b6040516101a59190610bb9565b60405180910390f35b3480156101ba57600080fd5b506101c36103c4565b6040516101d09190610c92565b60405180910390f35b3480156101e557600080fd5b506101ee610452565b6040516101fb9190610cd5565b60405180910390f35b34801561021057600080fd5b5061022b60048036038101906102269190610d26565b610478565b005b34801561023957600080fd5b50610242610514565b005b34801561025057600080fd5b506102596106bd565b6040516102669190610d75565b60405180910390f35b34801561027b57600080fd5b506102846107b0565b6040516102919190610aff565b60405180910390f35b6102a26107b6565b005b3480156102b057600080fd5b506102cb60048036038101906102c69190610b4b565b61082e565b6040516102d89190610bb9565b60405180910390f35b600047905090565b60006004600083815260200190815260200160002060009054906101000a900473ffffffffffffffffffffffffffffffffffffffff169050919050565b60075481565b600160009054906101000a900473ffffffffffffffffffffffffffffffffffffffff1673ffffffffffffffffffffffffffffffffffffffff163373ffffffffffffffffffffffffffffffffffffffff161461038657600080fd5b61038e6106bd565b50565b60046020528060005260406000206000915054906101000a900473ffffffffffffffffffffffffffffffffffffffff1681565b6060600280548060200260200160405190810160405280929190818152602001828054801561044857602002820191906000526020600020905b8160009054906101000a900473ffffffffffffffffffffffffffffffffffffffff1673ffffffffffffffffffffffffffffffffffffffff16815260200190600101908083116103fe575b5050505050905090565b600160009054906101000a900473ffffffffffffffffffffffffffffffffffffffff1681565b7f000000000000000000000000000000000000000000000000000000000000000073ffffffffffffffffffffffffffffffffffffffff163373ffffffffffffffffffffffffffffffffffffffff1614610506576040517f08c379a00000000000000000000000000000000000000000000000000000000081526004016104fd90610ded565b60405180910390fd5b610510828261086d565b5050565b60006002805490506007546105299190610e3c565b90506002818154811061053f5761053e610e6d565b5b9060005260206000200160009054906101000a900473ffffffffffffffffffffffffffffffffffffffff1673ffffffffffffffffffffffffffffffffffffffff166108fc479081150290604051600060405180830381858888f193505050501580156105af573d6000803e3d6000fd5b50600281815481106105c4576105c3610e6d565b5b9060005260206000200160009054906101000a900473ffffffffffffffffffffffffffffffffffffffff1660046000600354815260200190815260200160002060006101000a81548173ffffffffffffffffffffffffffffffffffffffff021916908373ffffffffffffffffffffffffffffffffffffffff1602179055506003600081548092919061065590610ecb565b9190505550600067ffffffffffffffff81111561067557610674610f13565b5b6040519080825280602002602001820160405280156106a35781602001602082028036833780820191505090505b50600290805190602001906106b9929190610a3f565b5050565b60006006547f000000000000000000000000000000000000000000000000000000000000000073ffffffffffffffffffffffffffffffffffffffff166370a08231306040518263ffffffff1660e01b815260040161071b9190610cd5565b602060405180830381865afa158015610738573d6000803e3d6000fd5b505050506040513d601f19601f8201168201806040525081019061075c9190610f57565b101561079d576040517f08c379a000000000000000000000000000000000000000000000000000000000815260040161079490610ff6565b60405180910390fd5b6107ab600554600654610880565b905090565b60035481565b662386f26fc1000034116107c957600080fd5b6002339080600181540180825580915050600190039060005260206000200160009091909190916101000a81548173ffffffffffffffffffffffffffffffffffffffff021916908373ffffffffffffffffffffffffffffffffffffffff160217905550565b6002818154811061083e57600080fd5b906000526020600020016000915054906101000a900473ffffffffffffffffffffffffffffffffffffffff1681565b8060078190555061087c610514565b5050565b60007f000000000000000000000000000000000000000000000000000000000000000073ffffffffffffffffffffffffffffffffffffffff16634000aea07f0000000000000000000000000000000000000000000000000000000000000000848660006040516020016108f4929190611016565b6040516020818303038152906040526040518463ffffffff1660e01b8152600401610921939291906110d8565b6020604051808303816000875af1158015610940573d6000803e3d6000fd5b505050506040513d601f19601f82011682018060405250810190610964919061114e565b50600061098684600030600080898152602001908152602001600020546109d0565b90506001600080868152602001908152602001600020546109a7919061117b565b600080868152602001908152602001600020819055506109c78482610a0c565b91505092915050565b6000848484846040516020016109e994939291906111d1565b6040516020818303038152906040528051906020012060001c9050949350505050565b60008282604051602001610a21929190611258565b60405160208183030381529060405280519060200120905092915050565b828054828255906000526020600020908101928215610ab8579160200282015b82811115610ab75782518260006101000a81548173ffffffffffffffffffffffffffffffffffffffff021916908373ffffffffffffffffffffffffffffffffffffffff16021790555091602001919060010190610a5f565b5b509050610ac59190610ac9565b5090565b5b80821115610ae2576000816000905550600101610aca565b5090565b6000819050919050565b610af981610ae6565b82525050565b6000602082019050610b146000830184610af0565b92915050565b600080fd5b610b2881610ae6565b8114610b3357600080fd5b50565b600081359050610b4581610b1f565b92915050565b600060208284031215610b6157610b60610b1a565b5b6000610b6f84828501610b36565b91505092915050565b600073ffffffffffffffffffffffffffffffffffffffff82169050919050565b6000610ba382610b78565b9050919050565b610bb381610b98565b82525050565b6000602082019050610bce6000830184610baa565b92915050565b600081519050919050565b600082825260208201905092915050565b6000819050602082019050919050565b610c0981610b98565b82525050565b6000610c1b8383610c00565b60208301905092915050565b6000602082019050919050565b6000610c3f82610bd4565b610c498185610bdf565b9350610c5483610bf0565b8060005b83811015610c85578151610c6c8882610c0f565b9750610c7783610c27565b925050600181019050610c58565b5085935050505092915050565b60006020820190508181036000830152610cac8184610c34565b905092915050565b6000610cbf82610b78565b9050919050565b610ccf81610cb4565b82525050565b6000602082019050610cea6000830184610cc6565b92915050565b6000819050919050565b610d0381610cf0565b8114610d0e57600080fd5b50565b600081359050610d2081610cfa565b92915050565b60008060408385031215610d3d57610d3c610b1a565b5b6000610d4b85828601610d11565b9250506020610d5c85828601610b36565b9150509250929050565b610d6f81610cf0565b82525050565b6000602082019050610d8a6000830184610d66565b92915050565b600082825260208201905092915050565b7f4f6e6c7920565246436f6f7264696e61746f722063616e2066756c66696c6c00600082015250565b6000610dd7601f83610d90565b9150610de282610da1565b602082019050919050565b60006020820190508181036000830152610e0681610dca565b9050919050565b7f4e487b7100000000000000000000000000000000000000000000000000000000600052601260045260246000fd5b6000610e4782610ae6565b9150610e5283610ae6565b925082610e6257610e61610e0d565b5b828206905092915050565b7f4e487b7100000000000000000000000000000000000000000000000000000000600052603260045260246000fd5b7f4e487b7100000000000000000000000000000000000000000000000000000000600052601160045260246000fd5b6000610ed682610ae6565b91507fffffffffffffffffffffffffffffffffffffffffffffffffffffffffffffffff8203610f0857610f07610e9c565b5b600182019050919050565b7f4e487b7100000000000000000000000000000000000000000000000000000000600052604160045260246000fd5b600081519050610f5181610b1f565b92915050565b600060208284031215610f6d57610f6c610b1a565b5b6000610f7b84828501610f42565b91505092915050565b7f4e6f7420656e6f756768204c494e4b202d2066696c6c20636f6e74726163742060008201527f7769746820666175636574000000000000000000000000000000000000000000602082015250565b6000610fe0602b83610d90565b9150610feb82610f84565b604082019050919050565b6000602082019050818103600083015261100f81610fd3565b9050919050565b600060408201905061102b6000830185610d66565b6110386020830184610af0565b9392505050565b600081519050919050565b600082825260208201905092915050565b60005b8381101561107957808201518184015260208101905061105e565b83811115611088576000848401525b50505050565b6000601f19601f8301169050919050565b60006110aa8261103f565b6110b4818561104a565b93506110c481856020860161105b565b6110cd8161108e565b840191505092915050565b60006060820190506110ed6000830186610cc6565b6110fa6020830185610af0565b818103604083015261110c818461109f565b9050949350505050565b60008115159050919050565b61112b81611116565b811461113657600080fd5b50565b60008151905061114881611122565b92915050565b60006020828403121561116457611163610b1a565b5b600061117284828501611139565b91505092915050565b600061118682610ae6565b915061119183610ae6565b9250827fffffffffffffffffffffffffffffffffffffffffffffffffffffffffffffffff038211156111c6576111c5610e9c565b5b828201905092915050565b60006080820190506111e66000830187610d66565b6111f36020830186610af0565b6112006040830185610cc6565b61120d6060830184610af0565b95945050505050565b6000819050919050565b61123161122c82610cf0565b611216565b82525050565b6000819050919050565b61125261124d82610ae6565b611237565b82525050565b60006112648285611220565b6020820191506112748284611241565b602082019150819050939250505056fea26469706673582212201b43a4e011fe077c6e013ac503562c697d9c7ee45ced992f6956e53c76ee190164736f6c634300080d0033",
  "immutableReferences": {
    "73": [
      {
        "length": 32,
        "start": 1732
      },
      {
        "length": 32,
        "start": 2180
      }
    ],
    "75": [
      {
        "length": 32,
        "start": 1146
      },
      {
        "length": 32,
        "start": 2240
      }
    ]
  },
  "source": "// SPDX-License-Identifier: MIT\n\npragma solidity ^0.8.11;\n\nimport \"@chainlink/contracts/src/v0.8/VRFConsumerBase.sol\";\n\ncontract Lottery is VRFConsumerBase {\n\n    address public owner;\n    address payable[] public players;\n    uint public lotteryId ;\n\n    mapping(uint => address payable) public lotteryHistory;\n\n    //random number part\n    bytes32 internal keyHash;\n    uint internal fee;\n    uint public randomResult;\n\n    constructor() \n        VRFConsumerBase(\n            0xb3dCcb4Cf7a26f6cf6B120Cf5A73875B7BBc655B, // VRF Coordinator\n            0x01BE23585060835E02B77ef475b0Cc51aA1e0709  // LINK Token\n        )\n    {\n        keyHash = 0x2ed0feb3e7fd2022120aa84fab1945545a9f2ffc9076fd6156fa96eaff4c1311;\n        fee = 0.1 * 10 ** 18; // 0.1 LINK (Varies by network)\n        \n        //init info\n        owner = msg.sender;\n        lotteryId = 1;\n    }\n    \n    function getRandomNumber() public returns (bytes32 requestId) {\n        //\n        require(LINK.balanceOf(address(this)) >= fee, \"Not enough LINK - fill contract with faucet\");\n        return requestRandomness(keyHash, fee);\n    }\n\n   \n    function fulfillRandomness(bytes32 requestId, uint randomness) internal override {\n        randomResult = randomness;\n        payWinner();\n    }\n\n    function getWinnerByLottery(uint lottery) public view returns(address payable) {\n        return lotteryHistory[lottery];\n    }\n\n    function getBalance() public view returns(uint) {\n        return address(this).balance;\n    }\n\n    function getPlayers() public view returns (address payable[] memory) {\n            return players;\n    }\n\n    function enter() public payable {\n        //entry game condition\n        require(msg.value > .01 ether );\n        players.push(payable(msg.sender));\n\n    }\n\n    // function getRandomNumber() public view returns(uint) {\n    //     return uint(keccak256(abi.encodePacked(owner,block.timestamp)));\n    // }\n\n    function pickWinner() public onlyOwner {\n        //pick winner means to get random number\n        getRandomNumber();\n        \n    }\n\n    function payWinner() public {\n        //produce winner\n        uint index = randomResult % players.length;\n        players[index].transfer(address(this).balance);\n\n        lotteryHistory[lotteryId] = players[index];\n        lotteryId ++;\n        \n        //reset the state of contract\n        players = new address payable[](0);\n    }\n\n    modifier onlyOwner() {\n        require(msg.sender == owner);\n        _;\n    }\n}",
  "sourcePath": "/Users/qinjianquan/Lottery/lottery/contracts/Lottery.sol",
  "compiler": {
    "name": "solc",
    "version": "0.8.13+commit.abaa5c0e.Emscripten.clang"
  },
  "schemaVersion": "3.4.7",
  "updatedAt": "2022-05-24T10:08:04.655Z",
  "networkType": "ethereum",
  "devdoc": {
    "kind": "dev",
    "methods": {},
    "version": 1
  },
  "userdoc": {
    "kind": "user",
    "methods": {},
    "version": 1
  }
}